:0A0000000C942A000C9400000C94EC
:10000A0000000C9400000C9400000C9400000C9466
:10001A0000000C9400000C9400000C9400000C9456
:10002A0000000C9400000C9400000C9400000C9446
:10003A0000000C9400000C9400000C9400000C9436
:10004A0000000C9400000C940000F894EE27ECBB1E
:10005A00F1E0FBBFEBBFE5BFF8E1F1BDE1BD8DE02B
:10006A00A2E0BB27ED938A95E9F780E098E0A0E645
:10007A00ED930197E9F7EFE5EDBFE8E0EEBFC0E6E3
:10008A00D2E00C944800E1E0E7BBE0E0E8BBE1E045
:10009A0004D0E0E002D0FBCFFFCFE8BBE8EEF3E00C
:1000AA00FA93EA930C945900E991F991309639F050
:1000BA0080ED97E00197F1F7A8953197C9F7089570
:00000001FF
